:020000040000FA
:100000000C94E5000C940D010C940D010C940D0161
:100010000C940D010C940D010C940D010C940D0128
:100020000C940D010C940D010C946C0B0C94020AB1
:100030000C940D010C940D010C940D010C940D0108
:100040000C940D010C940D010C940D010C940D01F8
:100050000C940D010C940D010C940D010C94570C93
:100060000C940D010C940D010C940D010C940D01D8
:100070000C940D010C940D010C940D010C940D01C8
:100080000C940D010C940D010C940D010C940D01B8
:100090000C940D010C940D010C940D010C940D01A8
:1000A0000C940D010C940D010C940D019E05A105FD
:1000B000900594059A05C205C205C205A505A905C6
:1000C000AD05B305B705C205BD052324251F1F1FB8
:1000D000070605040100271F1F1F1F1F1F1F1F1FCB
:1000E000201E2122000304090C0000000000000073
:1000F000000000000005020000000000000F1020BA
:100100004040800480402010020140010204088029
:1001100001020408102040800202020303050606C3
:100120000606060605020202020204040404040490
:100130000404000000002300260029002C002F00EA
:1001400000000000250028002B002E0031000000D8
:100150000000240027002A002D00300012010002B8
:10016000EF020110D016340B0001010203015065AB
:10017000646178005065646178206F616E7300047B
:10018000030904080B000202020100090400000137
:1001900002020000052400100105240101010424CD
:1001A000020605240600010705810310004009042A
:1001B0000100020A000000070502024000000705D6
:1001C0008302400000005B05070E11241FBECFEF25
:1001D000DAE0DEBFCDBF11E0A0E0B1E0ECE9FDE187
:1001E00002C005900D92AE34B107D9F721E0AEE41C
:1001F000B1E001C01D92AB3EB207E1F711E0CAECDD
:10020000D1E004C02297FE010E948C0EC63CD107AB
:10021000C9F70E94440C0C94CC0E0C94000061E0D1
:100220008DE00E94C30561E08EE00E94C30560E09E
:100230008EE00E94FC0561E08DE00E94FC0562E01A
:100240008AE00E94C30562E081E00E94C30562E08B
:1002500080E00E94C30562E082E00E94C30562E084
:100260008FE00E94C30562E084E00E94C30562E063
:1002700083E00E94C30561E083E10E94C30561E061
:1002800085E10E94C30561E084E10E94C30561E04D
:1002900086E10E94C30561E089E10E94C30561E037
:1002A00088E10E94C30561E087E10E94C30561E027
:1002B00086E10E94FC0561E089E10E94FC0561E0A5
:1002C00088E10E94FC0561E087E10E94FC0561E095
:1002D00082E10E94C30561E08EE00C94FC051F934F
:1002E000CF93DF9300D0CDB7DEB7162F582F506BCA
:1002F00061E082E15A8349830E94FC054BE05A8108
:10030000612F798184E691E00E94270584E691E0DF
:100310000E94170560E082E10F900F90DF91CF916E
:100320001F910C94FC051F93CF93DF9300D0CDB7A2
:10033000DEB7162F582F506B61E082E15A83498354
:100340000E94FC054BE05A81612F798184E691E09F
:100350000E94270584E691E00E94170560E082E193
:100360000F900F90DF91CF911F910C94FC05AF92ED
:10037000BF92CF92DF92EF92FF920F931F93CF9392
:10038000DF938AE00E94320620916201309163017E
:100390008217930731F18AE00E943206EC01813026
:1003A000910581F440E060910501809106010E9471
:1003B000930160E083E10E94FC05D0936301C09348
:1003C00062010FC04FE760910501809106010E9414
:1003D000930161E083E10E94FC0510926301109299
:1003E000620181E00E94320620915E0130915F013E
:1003F0008217930729F181E00E943206EC01609197
:1004000005016F5F8130910571F440E08091060134
:100410000E94930160E085E10E94FC05D0935F019A
:10042000C0935E010DC04FE7809106010E949301C9
:1004300061E085E10E94FC0510925F0110925E016F
:1004400080E00E94320620915C0130915D018217AC
:10045000930729F180E00E943206EC0160910501CA
:100460006E5F8130910571F440E0809106010E9439
:10047000930160E084E10E94FC05D0935D01C0938C
:100480005C010DC04FE7809106010E94930161E07D
:1004900084E10E94FC0510925D0110925C0182E0F3
:1004A0000E9432062091600130916101821793070A
:1004B00029F182E00E943206EC01609105016D5F36
:1004C0008130910571F440E0809106010E94930112
:1004D00060E086E10E94FC05D0936101C093600159
:1004E0000DC04FE7809106010E94930161E086E113
:1004F0000E94FC0510926101109260018FE00E9441
:10050000320620915A0130915B018217930729F13D
:100510008FE00E943206EC01609105016C5F813032
:10052000910571F440E0809106010E94930160E022
:1005300089E10E94FC05D0935B01C0935A010DC074
:100540004FE7809106010E94930161E089E10E94DA
:10055000FC0510925B0110925A0184E00E94320661
:1005600020915801309159018217930729F184E0B5
:100570000E943206EC01609105016B5F81309105AC
:1005800071F440E0809106010E94930160E088E1EF
:100590000E94FC05D0935901C09358010DC04FE74C
:1005A000809106010E94930161E088E10E94FC05B0
:1005B000109259011092580183E00E943206209156
:1005C0005601309157018217930729F183E00E9469
:1005D0003206EC01609105016A5F8130910571F48A
:1005E00040E0809106010E94930160E087E10E9453
:1005F000FC05D0935701C09356010DC04FE7809181
:1006000006010E94930161E087E10E94FC051092BF
:1006100057011092560189E00E945F052091540114
:100620003091550122503109821793070CF45CC0B8
:1006300089E00E945F0520915401309155012E5FA1
:100640003F4F281739070CF44FC088E00E945F0520
:1006500020915201309153012250310982179307A2
:100660000CF46FC088E00E945F0520915201309128
:1006700053012E5F3F4F281739070CF462C087E003
:100680000E945F05209150013091510122503109A3
:10069000821793070CF482C087E00E945F052091C7
:1006A0005001309151012E5F3F4F281739070CF44C
:1006B00075C086E00E945F0520914E0130914F0188
:1006C00022503109821793070CF495C086E00E94EE
:1006D0005F0520914E0130914F012E5F3F4F28174B
:1006E00039070CF488C0BDC089E00E945F05909373
:1006F000550180935401BC01882777FD8095982F80
:100700001F921F921F921F92AFE7AA2EB12CC12CED
:10071000D12CEE24EA9413E0F12E00E010E020E06A
:1007200030E0A9010E94FC0B462F809106016091E8
:1007300004018F5F0E946F010F900F900F900F9038
:1007400084CF88E00E945F0590935301809352010B
:10075000BC01882777FD8095982F1F921F921F92CA
:100760001F92EFE7AE2EB12CC12CD12CEE24EA94CF
:1007700013E0F12E00E010E020E030E0A9010E943B
:10078000FC0B462F80910601609104018E5F0E9450
:100790006F010F900F900F900F9071CF87E00E9424
:1007A0005F059093510180935001BC01882777FD2C
:1007B0008095982F1F921F921F921F924FE7A42E91
:1007C000B12CC12CD12CEE24EA9413E0F12E00E0E0
:1007D00010E020E030E0A9010E94FC0B462F809140
:1007E0000601609104018D5F0E946F010F900F90D0
:1007F0000F900F905ECF86E00E945F0590934F01AF
:1008000080934E01BC01882777FD8095982F1F9219
:100810001F921F921F922FE7A22EB12CC12CD12C18
:10082000EE24EA9413E0F12E00E010E020E030E046
:10083000A9010E94FC0B462F0F900F900F900F9074
:1008400080910601609104018C5FDF91CF911F912F
:100850000F91FF90EF90DF90CF90BF90AF900C94EE
:100860006F01DF91CF911F910F91FF90EF90DF907B
:10087000CF90BF90AF90089580E0089580E090E021
:1008800008951F93CF93DF93CDB7DEB7C456D10938
:100890000FB6F894DEBF0FBECDBFFB0120812E5FE7
:1008A0002083BE016F5F7F4F24E6FB0111922A95E2
:1008B000E9F728E029832BE02A83F2E0FC83E1E0DA
:1008C000ED83EE83A9E0A98714E01A87EE87EF870E
:1008D000AA8BB4E2BB8BEC8B20E031E03E8B2D8BFE
:1008E00049E050E0588F4F8BE98FAB8F1C8FFF8F03
:1008F000E8A343E049A357E05CA3BDA3EEA338A758
:100900002FA321E430E03AA729A726E02BA7BCA714
:10091000FDA7EEA7EFA729ABBAABFBABFCABFDABDA
:10092000AFABB8AF49AFEAAF4BAFECAFFDAFEEAF97
:100930002196AFAF21972296BFAF229723964FAF54
:1009400023972496FFAF249725961FAF25972696C9
:10095000EFAF26972796EFAF27972896EFAF289708
:100960002A96AFAF2A9755E02B965FAF2B972D961F
:10097000FFAF2D9720E430E02F963FAF2EAF2F979B
:1009800063965FAF6397B5E26496BFAF6497659671
:10099000EFAF65976696EFAF66976796EFAF67978D
:1009A0006896AFAF689769965FAF69976B96FFAF30
:1009B0006B976D963FAF2EAF6D97A1965FAFA197E6
:1009C000A296BFAFA297A396EFAFA397A496EFAF5F
:1009D000A497A5964FAFA597FC0122812B832B8767
:1009E0002F5F2A8F2D8F83812C968FAF2C978F5F4F
:1009F00080686A968FAF6A9744E650E080E00E9474
:100A0000B709CC59DF4F0FB6F894DEBF0FBECDBF8C
:100A1000DF91CF911F9108958DE499E4A4E4B9E4A6
:100A2000FB0180839183A283B38384E00895FC015A
:100A300083818F5F0C94530BFC0183818F5F0E9435
:100A400005091816190614F080E090E00895CF9378
:100A5000DF9300D000D0CDB7DEB749835A836B83D4
:100A60007C8344E050E0BE016F5F7F4F0E941C0515
:100A70000F900F900F900F90DF91CF910895CF932B
:100A8000DF93EC011C8282E08D838E83CE010F9672
:100A900098878F831E861D8686E391E099838883DD
:100AA00080E88F8781E8888B0E946607BE01DF910E
:100AB000CF910C94E20684E691E00C943F05E82F78
:100AC000F0E0E653FF4FE49190917B008E2F80720F
:100AD0009F7D892B80937B00EF718091070120E43B
:100AE000829FC0011124E82BE0937C0080917A0062
:100AF000806480937A0080917A0086FDFCCF80919B
:100B000078002091790090E0922B089590E0FC010C
:100B10003197EF30F105B0F5EA5AFF4F0C948A0E89
:100B2000809180008F7703C0809180008F7D8093BB
:100B30008000089580918000877FF9CF84B58F77FA
:100B400002C084B58F7D84BD0895809190008F7719
:100B500007C0809190008F7D03C080919000877FB7
:100B60008093900008958091C0008F7703C080919A
:100B7000C0008F7D8093C00008958091C200877F60
:100B80008093C2000895CF93DF9390E0FC01E25080
:100B9000FF4F2491FC01E85EFE4F8491882349F1C8
:100BA00090E0880F991FFC01E25BFE4FA591B49184
:100BB000805C9E4FFC01C591D4919FB7611108C024
:100BC000F8948C91209582238C93888182230AC08B
:100BD000623051F4F8948C91322F309583238C93AA
:100BE0008881822B888304C0F8948C91822B8C930B
:100BF0009FBFDF91CF9108950F931F93CF93DF9302
:100C00001F92CDB7DEB7282F30E0F901EC51FF4F2E
:100C10008491F901E250FF4F1491F901E85EFE4F13
:100C200004910023C9F0882321F069830E9486057E
:100C30006981E02FF0E0EE0FFF1FE05CFE4FA59111
:100C4000B4919FB7F8948C91611103C010958123E2
:100C500001C0812B8C939FBF0F90DF91CF911F918B
:100C60000F910895CF93DF93282F30E0F901EC51D5
:100C7000FF4F8491F901E250FF4FD491F901E85EF2
:100C8000FE4FC491CC2391F081110E948605EC2F78
:100C9000F0E0EE0FFF1FEE5CFE4FA591B4912C919A
:100CA0002D2381E090E021F480E002C080E090E01C
:100CB000DF91CF910895EF92FF920F931F93CF93FF
:100CC000DF937B01FC01C281D38100E010E020971B
:100CD00081F0E881F9810280F381E02DB701CE0136
:100CE000099597FD08C0080F191F0D84DE85C02DDA
:100CF000EECFC80102C08FEF9FEFDF91CF911F9120
:100D00000F91FF90EF9008950F931F93CF93DF9370
:100D10008B01FC01C281D381209771F0E881F981B8
:100D20000480F581E02DB801CE010995009731F4DA
:100D30000D84DE85C02DF0CF80E090E0DF91CF9173
:100D40001F910F9108950F931F93CF93DF938B0102
:100D5000FC01C281D381209771F0E881F98106807E
:100D6000F781E02DB801CE010995080F111D0D8402
:100D7000DE85C02DF0CFF8011082DF91CF911F9159
:100D80000F9108950F931F93CF93DF938B01FC0175
:100D9000C281D381209771F0E881F9810190F081BF
:100DA000E02DB801CE010995811106C00D84DE85C4
:100DB000C02DF0CF80E001C081E0DF91CF911F9185
:100DC0000F9108950F931F93CF93DF93FC01DB01E5
:100DD000218115968C91159790E0820F911D0897AF
:100DE0000CF06EC0C281D381209719F473836283A3
:100DF00008C08D859E85009711F0EC01FACFBE8763
:100E0000AD87808112968C931297818113968C9373
:100E10001397808116969C911697890F808360E0C6
:100E200020E430E072E015968C911597681708F071
:100E300045C0862F90E01796CD91DC911897C80F8A
:100E4000D91F4881C181D0E0C35EDE4F488314962C
:100E50005C91149741815130F9F450E08C01000FFE
:100E6000111F1996CD91DC911A97C00FD11F0881DF
:100E70001981EA01CC0FDD1FC15FDE4F19830883A2
:100E80001B96CD91DC911C97C80FD91F8881EA0170
:100E9000C85FDE4F88830DC0842F90E0EC01CC0F3B
:100EA000DD1FC15FDE4F39832883EC01C85FDE4F51
:100EB000788381818F5F81836F5FB5CF81E001C0CF
:100EC00080E0DF91CF911F910F910895809179017A
:100ED00081110DC082E08093750184E080937601DA
:100EE000109278011092770181E08093790185E773
:100EF00091E00895615030F02091F100FC012083D1
:100F00000196F8CF589884E6809390010895482F71
:100F100050E0FA01EE0FFF1FE15FFE4F20813181AB
:100F20002115310511F420E430E060E0293031056D
:100F300020F0369527956F5FF9CFFA01E85FFE4FF5
:100F40009081911101C092E08093E90081E080934B
:100F5000EB00FA01E35EFE4F80818093EC0080E1BC
:100F6000689F900111242260915034E0939FC0014A
:100F70001124282B2093ED00089540918401509175
:100F80008501209182013091830142175307E4F4D7
:100F90009091E8009570E1F39091E80092FD1FC0F8
:100FA0008093F100809184019091850101962091B8
:100FB0000F01309110012150310982239323892B95
:100FC00019F48EEF8093E80080918401909185015F
:100FD0000196909385018093840181E0089580E0DB
:100FE0000895CF92DF92EF92FF920F931F93CF93CA
:100FF000DF931F92CDB7DEB7082F162FF42E862F62
:10100000880F8E5F99830E94BD0783E00E94BD0711
:10101000E02EC02E9981D92E8C2D8E19811798F42F
:10102000F601F7FE02C0849101C080810E94BD07D5
:10103000082F80E00E94BD078023FFEFCF1ADF0A50
:101040008111EACF01C081E00F90DF91CF911F9114
:101050000F91FF90EF90DF90CF9008958091D7008F
:1010600081608093D70080EA8093D80089B5806141
:1010700089BD89B5826089BD09B400FEFDCF61E0FC
:1010800070E080E090E00E94C40C8091D8008F7CDA
:1010900080618093D8008091E000807F8093E000A1
:1010A0000895CF93DF931F92CDB7DEB71982CE019B
:1010B00001960E94A90D0E946607BE016F5F7F4FD7
:1010C0000E945B0689810F90DF91CF9108952FB721
:1010D000FC012083F89467706093E9000895CF9332
:1010E000DF931F92CDB7DEB7682FCE0101960E9425
:1010F00067088091F20099819FBF0F90DF91CF9197
:101100000895FF920F931F93CF93DF9300D0CDB735
:10111000DEB7F62E8A0190918F01992311F057FFC7
:1011200003C08FEF9FEF2BC0682FCE0101967A830B
:101130000E9467088091F20090E0A8017A818017F0
:1011400091070CF4AC01EF2DF72FF40E84E6FE1698
:1011500039F05898809390019091F1009193F7CFD6
:101160004115510521F08091F200882321F08981F9
:101170008FBFCA0104C08BE68093E800F8CF0F90C0
:101180000F90DF91CF911F910F91FF900895CF9312
:10119000DF931F92CDB7DEB741E050E0BE016F5F35
:1011A0007F4F0E948108019719F4898190E002C065
:1011B0008FEF9FEF0F90DF91CF9108951F93CF9303
:1011C000DF931F92CDB7DEB7182F682FCE0101969F
:1011D0000E9467088091E80085FF0EC02091F20010
:1011E0001770E12FF0E0EE0FFF1FE15FFE4F8081EF
:1011F0009181821B910902C080E090E029812FBF7C
:101200000F90DF91CF911F9108953F924F925F927F
:101210006F927F928F929F92AF92BF92CF92DF9206
:10122000EF92FF920F931F93CF93DF931F92CDB74F
:10123000DEB7382E7B01842E752E80918F01882396
:10124000A9F0042F152F4AEF942E832D8072582E6B
:10125000832D8770C82ED12CF601EA57FE4F6F01FF
:101260005AE3652EF32DF0744F2E11C08FEF9FEFD0
:1012700060C0832D0E94DE085C01009761F49A949F
:10128000A9F361E070E080E090E00E94C40C0115D9
:10129000110579F744C0632DCE0101960E946708BD
:1012A0008091E80085FF38C095010A151B050CF4F4
:1012B0009801021B130B552031F021503109C0F069
:1012C0001092F100FACF2E0D3F1DF70137FE08C036
:1012D000E217F30761F084918093F1003196F8CF23
:1012E000E217F30721F081918093F100F9CF7F019C
:1012F0008091E80085FD04C081E00115110509F029
:1013000080E0F60180838091E80085FF0FC0011521
:10131000110511F441100AC089818FBFB8CF5898C8
:1013200084E680939101882D972D03C06092E80098
:10133000F3CF0F90DF91CF911F910F91FF90EF901E
:10134000DF90CF90BF90AF909F908F907F906F90E5
:101350005F904F903F9008951092E90010928501A0
:101360001092840190938301809382010895CF921B
:10137000DF92FF920F931F93CF93DF9300D0CDB7EF
:10138000DEB7F82E8A016B0101151105B1F0F601E7
:10139000F7FE02C0849101C0808149835A830E9474
:1013A000BD0701501109FFEFCF1ADF0A49815A81A9
:1013B0008111EACF8FEF9FEF01C0CA010F900F900C
:1013C000DF91CF911F910F91FF90DF90CF90089503
:1013D0001F93CF93DF931F92CDB7DEB7162F2091C7
:1013E000E80022FFFCCF612F79830E947A078BEF00
:1013F0008093E800812F7981972F0F90DF91CF9113
:101400001F9108951F920F920FB60F921124DF9231
:10141000EF92FF920F931F932F933F934F935F93FE
:101420006F937F938F939F93AF93BF93EF93FF93AC
:10143000CF93DF93CDB7DEB76D97DEBFCDBF1092F0
:10144000E9008091E80083FF10C168E0CE01459675
:101450000E947A0782EF8093E8003D8937FF05C03C
:101460008091E80080FFFCCF03C08EEF8093E800FE
:10147000832F807609F0DDC02E894F89D88C211109
:101480000CC0303829F480918E018093F10002C0A5
:101490001092F1001092F100E1C0842F90E09D299C
:1014A000213049F43111DAC0019709F0D7C0809199
:1014B0008E018D7F0AC0233059F43111CFC00197BE
:1014C00009F0CCC080918E01826080938E01C6C0ED
:1014D000253041F48091E80080FFFCCF40684093C4
:1014E000E300BCC0263009F07FC0EB8CFC8C22E00E
:1014F000D2122CC080E090E00E94AC090E945108FA
:1015000099E08E010F5F1F4FF801292F11922A9544
:10151000E9F79983DA8291E09E8390EA98879AEFBF
:1015200099872091840130918501275F3F4F3C834B
:101530002B838D83C7010E94AC0949E050E0B801BC
:1015400080E00E94B7090E94510888C0C7010E942C
:10155000AC090E946607BE016B5E7F4F0E94840645
:10156000009719F00CF07AC07DC081E0D81661F1C7
:10157000E3E0DE1277C08F89882349F1823029F4B5
:1015800040E86AE084E791E01CC0813029F440E83B
:1015900065E08EE691E015C0833009F063C00E94DB
:1015A00066078E010F5F1F4FB8010E94A306F80166
:1015B00001900020E9F73197E01BF10B40E06E2F1E
:1015C000C8010E94F10748C06CE571E002C06FE7F6
:1015D00071E06115710509F445C0FB01449150E0CB
:1015E00080E80E94B7093AC02730E1F1283021F4A1
:1015F00081E08093F10032C0293081F5337091F59C
:101600000EE111E091E0F80181918F01882341F012
:10161000892F9D8F0E9487079D8D9F5F973099F737
:101620008EE78093EA001092EA008F8980938F0101
:1016300015C08B8D9C8D0E94AC09898D811105C0D0
:10164000CE0145960E94B40D07C00E946607BE01F8
:101650006B5E7F4F0E94C206882321F08EEF80933D
:10166000E80003C081E28093EB006D960FB6F8941A
:10167000DEBF0FBECDBFDF91CF91FF91EF91BF9144
:10168000AF919F918F917F916F915F914F913F911A
:101690002F911F910F91FF90EF90DF900F900FBE51
:1016A0000F901F9018958093E900E82FF0E0EA571B
:1016B000FE4F8081882321F09091E80095FFFCCFB8
:1016C0009091F200911104C0811102C0108208951E
:1016D0008AE38093E800FACF1F920F920FB60F9221
:1016E00011242F933F934F935F936F937F938F9327
:1016F0009F93AF93BF93CF93EF93FF93C091E1007C
:101700008091E100837F8093E1008093E100C3FF3B
:1017100008C080E00E94870710928F0188E08093C4
:10172000F000C2FF1BC00E94480E83E00E94530BD2
:1017300080919101882339F08091910181508093AB
:101740009101882389F180919001882339F080915B
:101750009001815080939001882341F1C4FF10C013
:101760008091E2008E7E81608093E2008091E100B2
:101770008F7E8093E10080918D018E7E806111C00B
:10178000C0FF16C08091E2008E7E80618093E200EF
:101790008091E1008E7E8093E10080918D018E7EAC
:1017A000816080938D0104C0589ACDCF589AD6CFCE
:1017B000FF91EF91CF91BF91AF919F918F917F91C9
:1017C0006F915F914F913F912F910F900FBE0F90AE
:1017D0001F90189510928F0110928E0110928D011A
:1017E0000E942E08E1EEF0E080818E7E80838DE005
:1017F0008093E200509A08954F925F926F927F9289
:10180000AF92BF92CF92DF92EF92FF920F931F930E
:10181000CF93DF93CDB7DEB729013A01621B730B7B
:10182000840B950B29893A894B895C892A193B09D4
:101830004C095D09298B3A8B4B8B5C8B9B01AC016E
:1018400069897A898B899C890E945B0EE418F50866
:1018500006091709A80197010E946B0E2A0D3B1D6E
:101860004C1D5D1DCA01B901DF91CF911F910F91F0
:10187000FF90EF90DF90CF90BF90AF907F906F90F0
:101880005F904F90089508950E94EC0C0E94430CC5
:1018900081E891E00E94EA0B0E940F01C0E0D0E0D5
:1018A0000E94B7012097E1F30E940000F9CF1F9238
:1018B0000F920FB60F9211242F933F938F939F9304
:1018C000AF93BF938091930190919401A091950162
:1018D000B09196013091920123E0230F2D3720F42F
:1018E0000196A11DB11D05C026E8230F0296A11D7A
:1018F000B11D209392018093930190939401A09342
:101900009501B09396018091970190919801A091D3
:101910009901B0919A010196A11DB11D8093970183
:1019200090939801A0939901B0939A01BF91AF91C0
:101930009F918F913F912F910F900FBE0F901F900D
:1019400018953FB7F8948091970190919801A091D4
:101950009901B0919A0126B5A89B05C02F3F19F0B7
:101960000196A11DB11D3FBF6627782F892F9A2FA1
:10197000620F711D811D911D42E0660F771F881F48
:10198000991F4A95D1F70895CF92DF92EF92FF9277
:10199000CF93DF936B017C010E94A10CEB01C1147A
:1019A000D104E104F10489F00E945A0E0E94A10CB6
:1019B0006C1B7D0B683E734090F381E0C81AD10820
:1019C000E108F108C851DC4FEACFDF91CF91FF90D9
:1019D000EF90DF90CF90089580E090E020E80FB680
:1019E000F89420936100809361000FBE789484B5D1
:1019F000826084BD84B5816084BD85B5826085BD0B
:101A000085B5816085BDEEE6F0E0808181608083F0
:101A1000E1E8F0E0108280818260808380818160D3
:101A20008083E0E8F0E0808181608083E1E9F0E09C
:101A3000808182608083808181608083E0E9F0E042
:101A4000808181608083E1ECF0E08081846080832C
:101A5000808182608083808181608083E3ECF0E01C
:101A6000808181608083E0ECF0E08081826080830F
:101A7000E2ECF0E0808181608083EAE7F0E0808141
:101A800084608083808182608083808181608083A4
:101A90008081806880830895CF93DF931F92CDB7B4
:101AA000DEB76983DC01ED91FC910280F381E02DCA
:101AB00041E050E0BE016F5F7F4F09950F90DF91CD
:101AC000CF910895CF93DF93EC018C859D8597FF8F
:101AD00005C082E00E94C7089D878C878C859D8504
:101AE000DF91CF91089583E00C94530BFC01848522
:101AF000958597FD06C082E00E946F0890E00196F0
:101B0000089582E00E946F0890E00895FC018485AA
:101B1000958597FD05C02FEF3FEF35872487089502
:101B200082E00C94C708CF93DF93EC0180912F01E2
:101B3000882331F083E00E9405091816190634F055
:101B400081E090E09B838A8380E090E0DF91CF91F9
:101B50000895FC0120812E5F208342E450E063E879
:101B600071E080E80C94B709FC0121818081813A01
:101B700059F4213209F045C047E050E068E271E0D5
:101B800080E00E94B70941C08132D9F5233289F43F
:101B9000838190E0982F88273281832BA0E0B0E0EA
:101BA0008093240190932501A0932601B0932701EF
:101BB0000FC0203239F467E070E088E291E00E94C3
:101BC000E80909C0223221F4828180932F0103C0E9
:101BD0002D7F2032D1F48091280190912901A0918C
:101BE0002A01B0912B01803B9440A105B10559F425
:101BF00080912F0180FD07C08AEF90E00E943C0E8B
:101C000004C080E008950E94410E81E00895109282
:101C10009E0110929D0188EE93E0A0E0B0E08093D9
:101C20009F019093A001A093A101B093A20182E42F
:101C300091E090939C0180939B018FEF9FEF909395
:101C4000A8018093A70108958091E00081608093AE
:101C5000E000F8942AE088E190E00FB6F894A895A7
:101C6000809360000FBE2093600087E797E7909312
:101C7000810280938002FFCF9093310180933001E5
:101C800008958FEF9FEF9093310180933001089575
:101C900080913001909131018F3F2FEF920749F0F1
:101CA00001979093310180933001892B11F40E94A8
:101CB000240E08950895DB018F939F930E94900E48
:101CC000BF91AF91A29F800D911DA39F900DB29FD8
:101CD000900D11240895052E97FB1EF400940E9488
:101CE000820E57FD07D00E949B0E07FC03D04EF4D6
:101CF0000C94820E50954095309521953F4F4F4F53
:101D00005F4F089590958095709561957F4F8F4FA7
:101D10009F4F0895EE0FFF1F0590F491E02D099459
:101D20000E94BD0EA59F900DB49F900DA49F800DA5
:101D3000911D11240895A1E21A2EAA1BBB1BFD01BF
:101D40000DC0AA1FBB1FEE1FFF1FA217B307E4079A
:101D5000F50720F0A21BB30BE40BF50B661F771FF2
:101D6000881F991F1A9469F76095709580959095D2
:101D70009B01AC01BD01CF010895A29FB001B39FAB
:101D8000C001A39F700D811D1124911DB29F700D84
:101D9000811D1124911D0895F894FFCF01000000CA
:101DA00001240101010102020000001000100040A6
:101DB00000400000000000000000C1808100000021
:101DC000FFFFFFFF00E1000000000000FFFF000038
:101DD00000003C0441043E040C05000000004C0DD2
:0A1DE000930D760D860D620D730D54
:107000005FC0000078C0000076C0000074C00000BF
:1070100072C0000070C000006EC000006CC00000B4
:107020006AC0000068C0000024C5000064C0000001
:1070300062C0000060C000005EC000005CC00000D4
:107040005AC0000058C0000056C0000054C00000E4
:1070500052C0000050C000004EC000004CC00000F4
:107060004AC0000048C0000046C0000044C0000004
:1070700042C0000040C000003EC000003CC0000014
:107080003AC0000038C0000036C0000034C0000024
:1070900032C0000030C000002EC000002CC0000034
:1070A0002AC0000028C0000026C000000E3E2B3E73
:1070B000CE3E2B3ECE3E603E813ECE3EA13EB33E16
:1070C00011241FBECFEFDAE0DEBFCDBF11E0A0E09C
:1070D000B1E0E8E3FEE702C005900D92A83CB107DD
:1070E000D9F721E0A8ECB1E001C01D92AB3DB20799
:1070F000E1F751D09FC684CF84E08093E90080916E
:10710000E80085FD0EC08091E8008B778093E80051
:107110008091E80082FDF3CF8EB38111F9CF80E03A
:1071200008958091F100089593E09093E900909183
:10713000E80095FF03C08093F10008959091E80066
:107140009E779093E8009091E80090FDF4CF9EB375
:107150009111F9CF089584B78093DB0184B7877FBD
:1071600084BF88E10FB6F8948093600010926000AD
:107170000FBE90E080E80FB6F89480936100909382
:1071800061000FBE6A98729A8FEB9DE50197F1F747
:1071900000C000000895CF93DF9300D01F92CDB7B9
:1071A000DEB700918002109181021092810210924C
:1071B0008002D1DF2091DB01629909C023FF17C053
:1071C00080910001909101010817190781F023FFB8
:1071D00007C080910001909101010817190739F04B
:1071E000E0E0F0E085919491019609F092C281E08F
:1071F00085BF82E085BF5F98579A5F9A1DD47894C7
:107200008FEF8093D0011092CF0183E085BDA4E081
:107210002A2EB3E03B2E11E005E0702E6624639425
:1072200080910201882309F463C22092E9008091D1
:10723000E80082FF22C21092C9011092C8015CDFEF
:10724000982F853439F088E8890F823010F0943512
:1072500019F452DF8DE0A0C19035E1F39C34D1F3F5
:10726000943721F487E460DF80E096C1913611F411
:1072700089E592C1913491F43FDF082F3DDF90E022
:10728000880F991F202F30E0322F2227330F822BB7
:10729000932BAA2797FDA095BA2F9CC1903711F484
:1072A00083E57AC1933571F470ECE72E71E0F72E27
:1072B000F70181917F0138DFF7ECEF16F1E0FF066F
:1072C000B9F7B4C1963521F481E32EDF80E364C1C0
:1072D000933731F487E828DF85E926DF8EE15CC14A
:1072E0009536A9F4E0E0F0E030925700E89507B653
:1072F00000FCFDCF70925700E89507B600FCFDCF6B
:10730000E058FF4FE11520E7F20771F7A3CF92375E
:1073100021F489E0E1E0F0E011C0963421F4E0E0EE
:10732000F0E089E00BC09E3421F489E0E3E0F0E076
:1073300005C0913539F489E0E2E0F0E08093570030
:1073400084912AC1923631F489E5EEDE80E0ECDEEC
:1073500080E822C1923419F0973609F0D5C099839C
:10736000CBDEA82EB12CBA2CAA24C6DEA82AC4DEF5
:10737000082F8BEB800F9981823010F08FE30CC1C6
:10738000973609F04AC0F1E1F0935700E8954501BE
:10739000B12C8114910409F449C1C090CB01D09063
:1073A000CC01E090CD01F090CE010634B9F4EB2D84
:1073B000F0E0EC29FD298491B7DEBB2069F022E0E2
:1073C000C20ED11CE11CF11CC092CB01D092CC01A9
:1073D000E092CD01F092CE01B1261BC0D701C601CB
:1073E000B695A795979587950FD59EDE8091CB0191
:1073F0009091CC01A091CD01B091CE010296A11D3A
:10740000B11D8093CB019093CC01A093CD01B0939B
:10741000CE0181E0881A9108BCCFC090CB01D090FA
:10742000CC01E090CD01F090CE01063449F4F60194
:1074300030925700E89507B600FCFDCF6092CA0174
:10744000BB82AA82412C512CEA81FB81EF2B09F4EB
:1074500050C0063431F5552001F18090CB01909059
:10746000CC01A090CD01B090CE0146DE242D30E0BD
:10747000382BF401090110935700E8951124F2E02C
:107480008F0E911CA11CB11C8092CB019092CC015B
:10749000A092CD01B092CE0102C02EDE482E512620
:1074A00022C02ADE682F8091CB019091CC01A0915F
:1074B000CD01B091CE01B695A79597958795ACD49F
:1074C0008091CB019091CC01A091CD01B091CE01E2
:1074D0000296A11DB11D8093CB019093CC01A09386
:1074E000CD01B093CE018A819B8101979B838A83D2
:1074F000ABCF063409F0AECEF60170925700E89596
:1075000007B600FCFDCFA6CE933469F4E090CB0122
:10751000F090CC01F1DD90E0F7010C0110935700E1
:10752000E895112497CE9336F9F4C090CB01D09012
:10753000CC01E090CD01F090CE01DEDDF601E160FE
:1075400090E00C0110935700E8951124F2E0CF0E63
:10755000D11CE11CF11CC092CB01D092CC01E09275
:10756000CD01F092CE0176CE9D3659F4E091CB015B
:10757000F091CC0170925700E89507B600FCFDCF62
:1075800069CE923559F4E091CB01F091CC01E590B0
:10759000F4908F2DC9DD8E2DC7DD48C0943419F5C8
:1075A000ABDD682F8091CB019091CC01A091CD01F2
:1075B000B091CE01B695A795979587952DD48091DA
:1075C000CB019091CC01A091CD01B091CE0102965A
:1075D000A11DB11D8093CB019093CC01A093CD014F
:1075E000B093CE0137CE9436F1F4C090CB01D09059
:1075F000CC01E090CD01F090CE01D701C601B69547
:10760000A7959795879500D48FDD22E0C20ED11CF7
:10761000E11CF11CC092CB01D092CC01E092CD01D3
:10762000F092CE0103C09B3109F0A8CE3092E90060
:107630009091E8008091E8008E778093E80095FDB6
:1076400011C08091E80080FD04C08EB38111F9CF94
:1076500014C08091E8008E778093E80003C08EB359
:10766000882359F08091E80080FFF9CF2092E9004B
:107670008091E8008B778093E800A5D38091C801C2
:107680009091C901893E914010F010920201AA9B8D
:1076900026C0AA9A9091CF018091D001992341F000
:1076A0008F3F21F41092CF018EEF0AC08F5F08C088
:1076B000811105C06092CF016092D00103C081505A
:1076C0008093D0018091CA01882349F08091C8013C
:1076D0009091C90101969093C9018093C80196B514
:1076E0008091D001981710F45F9A9ACD5F9898CD49
:1076F0008091E00081608093E0002DE088E190E0DF
:107700000FB6F894A895809360000FBE2093600098
:10771000FFCF85B7806890E00FB6F89485BF0FBEA5
:1077200085BF5F98579A5F9AE0E0F0E0099542E0E4
:1077300061EC82E013D142E161E883E00FD142E1E4
:1077400060E884E00BC18091D301982F9F7791323C
:1077500099F59091D401913229F0923229F1903229
:1077600059F510C0813A41F58091E800877F8093F8
:10777000E80067E070E083E091E059D08091E80094
:107780008B770FC08132C1F48091E800877F8093AE
:10779000E80067E070E083E091E0A2D08091E8002B
:1077A0008E778093E8000895813231F48091E8006B
:1077B000877F8093E800E6C00895292F30E02230CB
:1077C000310539F02330310549F02130310571F4AC
:1077D00012C08EE390E020E731E025C0882381F0DD
:1077E000813099F08230B1F08330C9F080E090E0D0
:1077F00020E030E018C082E190E02EEA31E013C0D2
:1078000084E090E02CE631E00EC080E290E02AE4D3
:1078100031E009C08EE290E02AE131E004C08EE060
:1078200090E02AE031E0FA0131832083089520912D
:10783000D9013091DA012617370748F06115710533
:1078400039F42091E8002E772093E80001C0B901B7
:10785000FC0120E061157105A1F18EB38823E1F1EF
:107860008530E1F18091E80083FD34C08091E8002B
:1078700082FF06C08091E80082FF26C080E0089564
:107880008091E80080FFE6CF2091F3008091F20024
:1078900090E0922B6115710551F08830910538F414
:1078A00021912093F100615071090196F3CF21E0FD
:1078B000089709F020E08091E8008E778093E80037
:1078C000C9CF2111CACFD6CF8EB3882329F08530F6
:1078D00089F604C081E0089582E0089583E0089568
:1078E0006115710529F42091E8002B772093E800B9
:1078F0006115710531F12EB3222361F1253061F15B
:107900002091E80023FD22C02091E80022FFF3CF60
:10791000FC01CF014091F3002091F20030E0342BC4
:10792000232B09F38091F1008193CF0161507109FC
:107930006115710571F7D7CF8EB3882359F0853063
:1079400059F08091E80080FFF7CF02C081E00895F0
:1079500080E0089582E0089583E008958F70809319
:10796000E900EBEEF0E0808181608083EDEEF0E0F5
:1079700010826093EC0040838091EE00881F88277E
:10798000881F08958091D30187FD05C08091E8008C
:1079900080FF0DC010C08091E80082FD04C08EB34E
:1079A0008111F9CF08958091E8008B7707C08EB3DD
:1079B0008111ECCF08958091E8008E778093E800E4
:1079C00008950F931F93CF93DF9346D04DD0C8ED0A
:1079D000D0E088818F7788838881806888838881D8
:1079E0008F7D888319BC1EBA1092D10100EE10E081
:1079F000F80180818B7F808388818160888342E069
:107A000060E080E0ABDFE1EEF0E080818E7F80839C
:107A1000E2EEF0E0808181608083808188608083F5
:107A2000F80180818E7F8083888180618883DF91E7
:107A3000CF911F910F910895E8EDF0E080818F7E46
:107A40008083E7EDF0E080818160808384E082BF05
:107A500081E08093D201B5CFE8EDF0E080818E7FA8
:107A600080831092E20008951092DA001092E100F3
:107A700008951F920F920FB60F9211242F933F93E8
:107A80004F935F936F937F938F939F93AF93BF9326
:107A9000EF93FF938091DA0080FF1BC08091D800A4
:107AA00080FF17C08091DA008E7F8093DA0080918A
:107AB000D90080FF0BC080E189BD82E189BD09B496
:107AC00000FEFDCF81E08EBB7DD103C019BC1EBA84
:107AD00079D18091E10080FF17C08091E20080FFA2
:107AE00013C08091E2008E7F8093E2008091E200DB
:107AF00080618093E2008091D80080628093D800FA
:107B000019BC85E08EBB5ED18091E10084FF2EC060
:107B10008091E20084FF2AC080E189BD82E189BDB5
:107B200009B400FEFDCF8091D8008F7D8093D800EE
:107B30008091E1008F7E8093E1008091E2008F7E52
:107B40008093E2008091E20081608093E200809166
:107B5000D101882311F084E007C08091E30087FF02
:107B600002C083E001C081E08EBB2CD18091E10096
:107B700083FF21C08091E20083FF1DC08091E1005E
:107B8000877F8093E10082E08EBB1092D1018091CB
:107B9000E1008E7F8093E1008091E2008E7F8093F0
:107BA000E2008091E20080618093E20042E060E0C8
:107BB00080E0D4DE07D1FF91EF91BF91AF919F910B
:107BC0008F917F916F915F914F913F912F910F9086
:107BD0000FBE0F901F9018951F93CF93DF9300D087
:107BE000CDB7DEB7E3EDF1E08091F100819381E064
:107BF000EB3DF807C9F7A7DD8091E80083FFCEC011
:107C00002091D3013091D401832F90E08A309105E7
:107C100008F0C4C0FC01EA5AF74CF0C0203881F0EB
:107C2000223809F0BBC08091D7018F708093E900A2
:107C30009091EB0095FB992790F91092E90001C013
:107C400090E08091E800877F8093E8009093F100B6
:107C50001092F10081C0822F8D7F09F09FC02230E9
:107C600009F09CC08091D501811124C02091D701D9
:107C70002F7009F493C02093E9008091EB0080FFFE
:107C800019C08091EB00333011F4806211C0806123
:107C90008093EB0081E090E0022E01C0880F0A94EF
:107CA000EAF78093EA001092EA008091EB00886086
:107CB0008093EB001092E9008091E800877F4FC02D
:107CC00021116CC01091D5011F778091E30080785D
:107CD000812B8093E3008091E800877F8093E80008
:107CE00051DE8091E80080FFFCCF8091E300806846
:107CF0008093E300112311F083E001C082E08EBB8A
:107D00004DC02058223008F049C0AE014F5F5F4F90
:107D10006091D7018091D5019091D6014EDD0097F9
:107D200009F43CC02091E800277F2093E800BC01C3
:107D300089819A817CDD8091E8008B778093E800CF
:107D40002DC0203859F58091E800877F8093E800A6
:107D50008091D1018093F1008091E8008E7780932B
:107D6000E80010DE1BC0211119C09091D50192309E
:107D7000A8F48091E800877F8093E8009093D10178
:107D800001DE8091D101811104C08091E30087FF61
:107D900002C084E001C081E08EBBC9DC8091E800B4
:107DA00083FF0AC08091E800877F8093E80080917C
:107DB000EB0080628093EB000F900F90DF91CF91EA
:107DC0001F9108950895CF938EB38823A9F08091D1
:107DD000E9008F709091EC0090FF02C090E801C024
:107DE00090E0C92FC82B1092E9008091E80083FD34
:107DF000F3DECF70C093E900CF910895EE0FFF1F1F
:107E00000590F491E02D0994F999FECF92BD81BDC2
:107E1000F89A992780B50895262FF999FECF1FBAB1
:107E200092BD81BD20BD0FB6F894FA9AF99A0FBEA3
:107E300001960895F894FFCF7777010000000000C5
:107E400000080E03300030003400350038003200E6
:107E500000002E034D006100740074006100690091
:107E60007200540065006300680020004300440075
:107E700043002000530065007200690061006C003F
:107E8000000020034D00610074007400610069006F
:107E90007200540065006300680020004C004C0034
:107EA000430000000403090409023E0002010080AF
:107EB000320904000001020201000524001001043F
:107EC0002402020524060001070582030800FF09B9
:107ED000040100020A000000070504021000050763
:107EE0000583021000051201100102000008D016DF
:107EF00057050001010203014D542D434443200066
:00000001FF
